:1000000025006400A304040A300C24003C0CA30463
:100010001309A304A405C404A3042209A3043E00F5
:100020006400A304480A04006000A40284011F0EB7
:10003000430600088401140AA305860BA305290BB7
:06004000A304390A0108C7
:10007200A404C4041002A4053000A4041102A405BF
:100082003100720073007800030578030008470C02
:100092000200000C0700010C0600A404C40467005F
:1000A2006600530A550CA4053D00690C3C00FC0295
:1000B200580AFD02580A010C2F000F02A405C404BD
:1000C200FA013B024307660A670A750AA404060698
:1000D2006B0A6C0A710AA4057B0003057B03DF0B24
:1000E200A4057B00DF0BDF0B1B02010F43077A0A1B
:1000F2007B0A8A0AA40406067F0A800A840A020C82
:10010200A4053B00DF0BA4057B0003057B03DF0B8B
:10011200DF0B1B02020F43078F0A900AB00AA404E6
:100122000607940A950AAB0AA4051E0243079A0A17
:100132009C0A7E00A90A010C2F000F02F601090C8D
:1001420096000307A50AA60AA70A760077007A0096
:100152007B00DF0B020CA4053B00DF0BDF0B7B00F7
:10016200DF0BDF0BDF0BDF0B080C9A000307BA0A69
:10017200BB0A530A340CA40426003F0C2700A40532
:100182007A00530A530A080C9A000307C90ACA0ADA
:10019200530A37024307CE0ACF0AD90A340CA40401
:1001A20026003F0C2700A405770003057703DF0A2A
:1001B200A40466006700A4057700DF0A7A00530AE8
:1001C200530A080C9A000307E70AE80A530A37029F
:1001D2004307EC0AED0AF70A040CA40426002E0CCD
:1001E2002700A405770003057703FF0A300CA40457
:1001F2002600110C2700A4057700FF0A7A00530A93
:10020200530A040C9A000307070B080B530A370220
:1002120043070C0B0D0B160BA4046600160C2700EB
:10022200A4057700030577032E0B1702010F43077E
:100232001B0B1C0B250B200CA4042600210C2700F1
:10024200020CA40537002E0B140CA4042600080C83
:100252002700A40577002E0B2E0B7A00530A530AAF
:10026200040C9A000307360B370B530A3702430775
:100272003B0B3C0B460B040CA4042600170C270076
:10028200A4057700030577035E0B1702010F4307EE
:100292004B0B4C0B550B240CA4042600230C2700FB
:1002A200020CA40537005E0B140CA40426000B0CF0
:1002B2002700A40577005E0B5E0B7A00530A530AEF
:1002C200080C9A000307660B670B530A37024307B1
:1002D2006B0B6C0B760B340CA40426003F0C27002E
:1002E200A4057700030577037E0B040CA404260003
:1002F200030C2700A40577007E0B7A00530A530AE9
:10030200020C9A000307860B870B530AA3041C09ED
:10031200A304A404C4041E02A4057500F501A404E8
:100322001D02A4057400F40115022F0014022E0010
:100332000F02340EA4042600A40514023F0EA404E6
:100342002700A4057A00530A530A020C9A000307F5
:10035200AB0BAC0B530AA3041C09A304A404C404EE
:100362001E02A4057500F501A4041D02A405740073
:10037200F40115022F0014022E000F02340E390070
:1003820059051902A4042600A40514023F0E3900DF
:10039200030C2F000F0239011902A4042700A4053F
:1003A2007A00530A530AA404660067000300A405F6
:1003B200C4047600530A7600530A530A1602000F49
:1003C2004306B50A010F4306C40A030F4306E20AB5
:1003D200010F4306020B070F4306310B010F4306C1
:1003E200610B030F4306810B010F4306A60B0F0F90
:0E03F2004306D40BDC0B530A530AA304020A81
:10065200000C2C00000C2D00000C2E00000C2F00B2
:100662000F02A404C4043C000E023B000D023A0037
:100672000C0239003C0B10073F0B400B510B1402CC
:10068200F9011502030695024307FA011602030651
:1006920096024307FB01170203069702FC01510B66
:1006A200010C380003047403750376037703F80220
:1006B200530B010C380003043303320331033003BC
:1006C200F8025C0B10022C0011022D0012022E0007
:1006D20013022F000F020E010D010C014307720BD2
:1006E200730B3C0B740B19022C001A022D001B0217
:1006F2002E001C022F000F0233000E0232000D02E8
:1007020031000C023000850B0008A405C404380235
:1007120043078C0B8D0B960B010CA4043000000CCC
:100722003100A3042009A305960BA405C4041002FA
:100732002C0011022D0012022E0013022F000F02B4
:10074200A40433000E0232000D0231000C0230000C
:100752006D0C2C004E0C2D00C60C2E00410C2F00EF
:100762000F0237000E0236000D0235000C02340073
:10077200A3041E09A305390C2C00300C2D00000C1B
:100782002E00000C2F00A404C4041002EC0111027C
:100792000306D103CD0BCE0BED0112020306D203E9
:1007A200D30BD40BEE01130203069302EF010F02E7
:1007B200A40533000E0232000D0231000C0230009B
:1007C200100228001102290012022A0013022B0033
:1007D200100CA4043F004B032B032A032903280314
:1007E200FF02EC0BFF0C2E007F0C2F000E024801C3
:0C07F2003D000F0249013E00FE0B000814
:021FFE00F4FFEE
:00000001FF
