:1000000025006400A304040A300C24003B0CA30464
:100010001909A304700C2400740CA3041909A30487
:10002000A405C404A3042809A3043B006400A30599
:10003000270A04006000A40284011F0E4306000882
:1000400084011A0AA304840BA304270BA304140B32
:020050000108A5
:10022800A404C4041002A405C4053000A404C40432
:100238001102A405C405310072007300C4047800DB
:10024800030578030008000C2C00000C2D00000C9E
:100258002E00000C2F000F02A404C4043C000E0260
:100268003B000D023A000C0239003A0B10073D0B17
:100278003E0B4F0B1402F9011502030695024307C2
:10028800FA011602030696024307FB01170203064A
:100298009702FC014F0B010C38000304740375032B
:1002A80076037703F802510B010C3800030433037B
:1002B800320331033003F8025A0B10022C001102EA
:1002C8002D0012022E0013022F000F020E010D0145
:1002D8000C014307700B710B3A0B720B19022C00BF
:1002E8001A022D001B022E001C022F000F023300E1
:1002F8000E0232000D0231000C023000830B0008A0
:10030800A405C404380243078A0B8B0B940B010C19
:10031800A4043000000C3100A3042609A304940BA4
:10032800A405C40510022C0011022D0012022E0093
:1003380013022F000F02A404C40433000E0232007B
:100348000D0231000C0230006D0C2C004E0C2D00FB
:10035800C60C2E00410C2F000F0237000E0236008B
:100368000D0235000C023400A3042409A304390C3F
:100378002C00300C2D00000C2E00000C2F00A404C3
:10038800C4041002EC0111020306D103CC0BCD0BFF
:10039800ED0112020306D203D20BD30BEE011302B6
:1003A80003069302EF010F02A405C40533000E02F1
:1003B80032000D0231000C02300010022800110238
:1003C800290012022A0013022B00100CA404C404F2
:1003D8003F004B032B032A0329032803FF02ED0BDD
:1003E800FF0C2E007F0C2F000E0248013D000F026B
:0803F80049013E00FF0B000863
:10044E00470C0200000C0700010C0600A404C404B3
:10045E0067006600320AA4051602A4042600A4054D
:10046E001702A4042700100CA4053C00FC023D0A50
:10047E000400A404C40466006700100CA4053C002C
:10048E00FC02470A0400530CA405C4043C00FC0201
:10049E004E0A530CA405C4043C00FC02540A010C81
:1004AE002E006F000E02A405C404F2010306B3026F
:1004BE000F02F3013A024307650A660A740AA4049E
:1004CE0006066A0A6B0A700AA4057A0003057A0307
:1004DE00DE0BA4057A00DE0BDE0B1A02010F4307BA
:1004EE00790A7A0A890AA40406067E0A7F0A830A12
:1004FE00020CA4053A00DE0BA4057A0003057A036C
:10050E00DE0BDE0B1A02020F43078E0A8F0AB10AA8
:10051E00A4040607930A940AAC0AA4051B02430717
:10052E00990A9B0A7B00AA0A010C2F000F02F40104
:10053E00090C94000307A40AA50AA60A7400750004
:10054E0072007300AA0A7A00DE0B020CA4053A00B0
:10055E00DE0BDE0B7A00DE0BDE0BDE0BDE0B000C91
:10056E009300080C430692000307BE0ABF0A320A24
:10057E00340C36003F0C370072007300320A320A18
:10058E00030C9300200C430692000307CF0AD00AF7
:10059E00320A35024307D40AD50ADD0A340C360076
:1005AE003F0C3700750003057503E10A76007700EE
:1005BE007500E10A72007300320A320A030C9300CE
:1005CE00200C430692000307ED0AEE0A320A3502AA
:1005DE004307F20AF30AFB0A040C36002E0C37000E
:1005EE00750003057503010B300C3600110C370036
:1005FE007500010B72007300320A320A010C93006F
:10060E00900C4306920003070D0B0E0B320A3502B7
:10061E004307120B130B1A0B7600160C37007500DE
:10062E00030575032E0B1502010F43071F0B200B3D
:10063E00270B200C3600210C3700020C35002E0B38
:10064E00140C3600080C370075002E0B2E0B7200A2
:10065E007300320A320A010C9300900C430692008A
:10066E0003073A0B3B0B320A350243073F0B400B95
:10067E00480B040C3600170C370075000305750384
:10068E005C0B1502010F43074D0B4E0B550B240C43
:10069E003600230C3700020C35005C0B140C3600B0
:1006AE000B0C370075005C0B5C0B72007300320A8A
:1006BE00320A030C9300200C430692000307680BCA
:1006CE00690B320A350243076D0B6E0B760B340C39
:1006DE0036003F0C37007500030575037C0B040CC8
:1006EE003600030C370075007C0B72007300320A63
:1006FE00320A000C9300C80C430692000307880BC5
:10070E00890B320AA3042209A305A404C4041E0201
:10071E00A4057100F101A4041D02A4057000F001EE
:10072E0011022F0010022E000F02340E360010029E
:10073E003F0E370072007300320A320A000C93002B
:10074E00C80C430692000307AD0BAE0B320AA3048E
:10075E002209A305A404C4041E02A4057100F1011C
:10076E00A4041D02A4057000F00111022F00100256
:10077E002E000F02340E39005905190236001002F0
:10078E003F0E3900030C2F000F02390119023700FA
:10079E0072007300320A320AA40466006700030076
:1007AE00A405C4047400320A7400320A320A140218
:1007BE00000F4306B60A010F4306C70A030F43068E
:1007CE00E50A010F4306050B070F4306320B010F17
:1007DE004306600B030F4306800B010F4306A50B68
:1007EE000F0F4306D30BDB0B320A320AA304020AA5
:021FFE00F4FFEE
:00000001FF
